:0600000002003B02024D6C
:03000B0002028B63
:03001B000202A43A
:10003B00758000D292D29375A0FF7937D28875A8BC
:10004B0081752F00759850758920758DFA758BFA0F
:10005B00D28EC299C2987537007538007539007504
:10006B003A00D27C75300175310185252485232515
:10007B00C298E599F52375310C75300C3143712716
:10008B0074009004E093B5241674009004E193B5CA
:10009B00250D74009004E293B52304D27A800020DE
:1000AB0098C811E3E532B40B0221A1B40D0221E68D
:1000BB00207811207910D279C27C01D58530318519
:1000CB00323001D1C279314301AA85393A853839A9
:1000DB0085373885323780E4C27875A07F75320159
:1000EB00C2A6E5A0540FB40F0201FB753202211E0C
:1000FB00D2A6C2A5E5A0540FB40F02210D75320391
:10010B00211ED2A5C2A4E5A0540FB40F03D27822AE
:10011B00753204C2A6C2A5C2A420A0012220A10749
:10012B00E5322403F5322220A207E5322406F5320C
:10013B0022E5322409F532227D05E5309004CD937A
:10014B00F580C292711CD292E5319004CD93F5806B
:10015B00C293711CD293DDE222753700753800759E
:10016B003900753A00D27CC27DC27EC27F22C28E1C
:10017B00C28C759850758920758DFA758BFAD28E55
:10018B00C299C298E493A3B4000122F5993099FD6A
:10019B00C2997127218F51E251E251E231649003F0
:1001AB0032317901AA51E251E251E2307C059003E0
:1001BB00B38013307D059003DE800B307E059004F9
:1001CB000B80039004393164317901AA51E251E279
:1001DB0051E2316490048C317901AA307AEE307C93
:1001EB000221B0E538D27D60BCE539C27DD27E609C
:1001FB00B4E53AC27ED27F60AC853A33853934851B
:10020B00383585373651D151D151D1316451F390B5
:10021B000355317901AA74009004DC93B53A4280FE
:10022B000074009004DD93B539378000740090049E
:10023B00DE93B5382C800074009004DF93B5372122
:10024B008064307AD1E53AB533178000E539B5349F
:10025B00108000E538B535098000E537B5360280EA
:10026B0045307C05900467800390036B31793164D2
:10027B00C28E7589117C28D28DD28FD2A9D2AB3286
:10028B00C28CDC0CC2A9C2AB9004BE31790202A3B2
:10029B00758C3C758AB0D28C32C28E758DFC758B89
:1002AB0018B297D28E3251C051C051C031649003F5
:1002BB0089317901AA753100753000314375310EE2
:1002CB0075300E3143227531007530003143753175
:1002DB000B75300B3143227531007530003143758E
:1002EB00310D75300D314322853330853331314338
:1002FB00712785343085343131437127853530850D
:10030B00353131437127853630853631314371278D
:10031B00227F0A7EE60000DEFCDFF8227F647EE6A9
:10032B000000DEFCDFF82220204F6E6C7920646920
:10033B006769747320506C6561736520456E7465D5
:10034B00725F416761696E0D0A0020205061737303
:10035B00776F7264205361766564203A290D0A0029
:10036B00202050617373776F7264204D69734D61F8
:10037B007463687E4F50454E203A280D0A002020AA
:10038B0050617373776F7264204D61746368656439
:10039B0021203A2D292052657365742074686520DD
:1003AB00626F6172640D0A00202050617373776F66
:1003BB007264204669656C6420697320626C616E9F
:1003CB006B2C456E74657220342064696769747395
:1003DB000D0A002020596F7527766520656E7465B0
:1003EB00726564206F6E6C7920312070696E2065A8
:1003FB006E74657220342070696E7321210D0A00B2
:10040B002020596F7527766520656E74657265645B
:10041B00206F6E6C7920322070696E7320656E745C
:10042B00657220342070696E7321210D0A00202023
:10043B00596F7527766520656E7465726564206FDC
:10044B006E6C7920332070696E7320656E746572E3
:10045B0020342070696E7321210D0A002020456E17
:10046B0074657220342070696E73206265666F72DA
:10047B0065207072657373696E67205321210D0AB5
:10048B000020205772697465206D6520434154200C
:10049B006265666F726520736176696E6720796F2E
:1004AB007572206F776E2070617373776F72642033
:1004BB000D0A002020547279206861726465720DF8
:1004CB000A000080065B4F666D7D077F6F763F638A
:0804DB007702030206434154BD
:00000001FF